:1000000000600020B5020000DD020000DF020000F9
:10001000E1020000E3020000E50200000000000031
:10002000000000000000000000000000E7020000E7
:10003000E902000000000000EB020000ED020000F9
:10004000AD210000EF02000025260000EF020000B5
:10005000EF0200000000000065240000EF02000035
:10006000EF020000EF020000EF020000EF020000CC
:10007000EF020000EF020000EF020000EF020000BC
:10008000EF0200001D100000EF020000EF02000070
:10009000B9100000EF02000095340000EF020000EC
:1000A000EF020000EF02000000000000000000006E
:1000B000EF020000EF02000000000000000000005E
:1000C0000000000000000000000000000000000030
:1000D0000000000000000000000000000000000020
:1000E0000000000000000000000000000000000010
:1000F0000000000000000000000000000000000000
:1001000000000000000000000000000000000000EF
:1001100000000000000000000000000000000000DF
:1001200000000000000000000000000000000000CF
:1001300000000000000000000000000000000000BF
:1001400000000000000000000000000000000000AF
:10015000000000000000000000000000000000009F
:10016000000000000000000000000000000000008F
:10017000000000000000000000000000000000007F
:10018000000000000000000000000000000000006F
:10019000000000000000000000000000000000005F
:1001A000000000000000000000000000000000004F
:1001B000000000000000000000000000000000003F
:1001C000000000000000000000000000000000002F
:1001D000000000000000000000000000000000001F
:1001E000000000000000000000000000000000000F
:1001F00000000000000000000000000000000000FF
:1002000010B5054C237833B9044B13B10448AFF350
:1002100000800123237010BDE812002000000000C0
:100220002845000008B5034B1BB103490348AFF351
:10023000008008BD00000000EC12002028450000EE
:10024000154B002B08BF134B9D46A3F5803A0021A8
:100250008B460F461348144A121A03F0A1FA0F4BAB
:10026000002B00D098470E4B002B00D09847002061
:10027000002104000D000D48002802D00C48AFF307
:10028000008003F05BFA2000290002F08FFD03F0EC
:1002900041FA00BF000008000060002000000000DC
:1002A00000000000E8120020201B002000000000D9
:1002B000000000000649074A074B9B1A03DD043B78
:1002C000C858D050FBDC01F0D9FCFFF7B9FF0000A3
:1002D000C445000010120020E8120020FEE7FEE7EF
:1002E000FEE7FEE7FEE7FEE7FEE7FEE7FEE7FEE7E6
:1002F000F0B595B01D46164608460C4601F0BDFB0C
:100300001A9B0D93CDE9086500252B46082205A907
:1003100020460A958DF82C500C9501F0EAFB079BBE
:100320000293069B03939DF814308DF8115003F04F
:100330000302012A1DD1BDF81420059DC3F3C20399
:10034000C2F383168DF81030B20008230EA92046A0
:1003500001F0CFFBC5F3952508AB0093324602AB05
:100360000EA9284600F0C6FB204601F08AFB15B016
:10037000F0BD022AF8D1BDF81650C3F3C203C5F38D
:1003800089158DF810300827082D2E4628BF08261D
:100390003B4632460EA9204601F0ABFBAD1B08AB35
:1003A00002AA31460EA8374400F008FC002DEBD11C
:1003B000DAE70000014B01221A7070474513002054
:1003C0007047000070B5124D06460FCD88B06C46E0
:1003D0000FC495E80F00002E84E80F004FF0FF33A4
:1003E0004FF00602CDE90023CDE90233094A0A485D
:1003F0004FF0EB7308BF00226946069301F078FEC8
:1004000008B100F05FFD054B1E7008B070BD00BF65
:10041000D03A0000B50300001012002004130020A1
:1004200008B5044802F040FABDE808400020FFF794
:10043000C9BF00BF1412002007B5044B0093044A43
:100440004023FFF755FF03B05DF804FB550400009F
:100450000513002010B5084C08480023D2B22370C1
:1004600002F08AFA08B100F02DFD054B1A7812B19E
:100470002378002BFBD010BD451300201412002060
:10048000041300200120FFF79DBF000010B5054CAC
:10049000FFF7F8FF0421204600F09AFA0123637267
:1004A00010BD00BF1C120020037813F0030F02469A
:1004B00003F0040001D008B97047B0B103F00300A5
:1004C000012803D0022809D0012070470B68128848
:1004D0000233C2F3831213440B6070470B685288D7
:1004E000023303EB92130B60EEE70B68508812881F
:1004F000013303EB9013F4E72DE9F04F87B00023AD
:100500000446861C0DF107000F4615468DF807308E
:1005100000F0CAFF454801683960D0E90132134450
:1005200001335B1A824600F21C4700F5836900F232
:100530001448B3421CD30020002D73D004F00F03E5
:100540009B0143F0050363F30F00DAF80020DAF8AB
:1005500008301340033316444AF823009DF807007F
:10056000CAF8006000F0C4FF012007B0BDE8F08FBA
:100570000121384600F0F5FF484601F00AF84046F0
:1005800001F007F8DAF80400DAF808B0029000EA9F
:100590000B0003300AEB800002A9FFF785FF029BE6
:1005A00050BB0BEA03020AEB820203F1020CD26891
:1005B0000392013303EA0B0B0AEB8B0B02F00302ED
:1005C000012ADBF80C10CDF808C023D0022A16D07F
:1005D0008346404600F0E0FF10B1029BCAF80430A9
:1005E0005946384600F0BDFFDAE901231344DAF832
:1005F000002001339B1A9CE70BEA0300C9E7BDF812
:100600000E30C3F3891303334FEA114B0CEB930302
:100610000293DEE7BDF80C30C3F383134FEA114BAE
:100620006344F5E7A40544F006008EE718140020A3
:1006300008B50E4B0E48FF229A600022C3F818241A
:10064000C3E90022C3F8142483F8202401F0CEF972
:1006500038B9084A084B09499B1ADB0802469A42F6
:1006600000D108BD21F822200132F8E7181400203B
:100670008C450000344500008C450000BC12002071
:1006800030B50A4C71B10A4A0A49121BD20800233C
:100690009A4201D1002030BD31F82350854202D06A
:1006A0000133F5E7034654F83300F4E7344500001E
:1006B0008C450000BE120020094B013903EBC0003D
:1006C000032909D8DFE801F00A0204060420704774
:1006D00000797047407970470020704702207047CA
:1006E00034450000034BD3E90030C31A5842584147
:1006F000704700BF181400202DE9F04387B0FFF7C2
:10070000F1FF0646002840F0F3807A4DC5F8180442
:10071000BFF34F8F6B68AC6802932340033305EB44
:10072000830002A9FFF7C0FE029B0746002861D1A3
:1007300004EA0302991C013305EB8202234005EB16
:100740008303D268DB68049302F00303022B039255
:10075000029162D1BDF80E306748C3F38918B8F131
:10076000500FC14628BF4FF0500969F38F1309F1AC
:100770000801ADF80E3001F051F90646002800F0EE
:10078000A58001F07AF93B46082203A9304601F022
:1007900087F9029924EA01020132B9EB820F4FEA8C
:1007A000820333D95FFA89F963B32140DCB2A9EB44
:1007B000040903315FFA89F7A146504C05EB81012A
:1007C00008234A46304601F06BF934B109F10803B9
:1007D0003A462146304601F063F9029B08F10308CE
:1007E00003EB98030293D5F81834002B48D1D5F8C1
:1007F000104456E02A689A428FD86A60304607B0A3
:10080000BDE8F0833D491C461F46D9E70C40E11C7A
:1008100008234A4605EB8101DCE7012B56D1BDF8E0
:100820000C303548C3F38311062928BF062161F334
:10083000891302318900ADF80C3001F0EFF806465B
:10084000002843D001F019F93B46082203A930469D
:1008500001F026F9BDF80C20C2F38312BB009742C9
:1008600003F10803BFD202994A1C214003310292CE
:1008700005EB81010422304601F012F90137E9E766
:10088000304601F0FEF8FFF72DFF80F00106F6B2CA
:10089000B4E7637A23B1236831461B682046984742
:1008A0006468002CF5D1304601F0EBF80DF107003B
:1008B0008DF8074000F0F8FDD5F818340BB9029B0D
:1008C0006B609DF8070000F013FEDCE7D5F81044DC
:1008D00044B90B4B0B491888000440F0020000F0AB
:1008E0005FF8D0E7236820469B6898476468EFE785
:1008F000002683E7181400208C45000024140020F3
:10090000CC120020FC3A00002DE9F74F224D04469E
:100910000F46924601A901221846D5F808909B4639
:10092000FFF7EAFD20B3019E4FF00008B21CD84546
:1009300008EB020126D11948002100F0EFFD80F3F9
:100940001000000440EA1440E400731C04F0380472
:1009500003EA090306EA090644F0010405EB8303F0
:10096000033644EA881444EA8724D86045F82640D0
:1009700095F820341BB1FFF7BFFE0028FBD103B070
:10098000BDE8F08F09EA010105EB81015AF8283032
:10099000CB6008F10108CAE71814002034180020C1
:1009A00000231A46FFF7B0BF07B50123019201AA41
:1009B000FFF7AAFF03B05DF804FB07B5CDE90023FC
:1009C00002236A46FFF7A0FF03B05DF804FB0000B6
:1009D00030B5104AD2F8104403460020214639B9F8
:1009E0001872D2F8104444B9C2F81034596030BDBE
:1009F0000D7A854207D04968F1E761685960D2F8FD
:100A000010245360F3E701300A28E7D14FF0FF309C
:100A1000EDE700BF1814002038B5084A0123D2F8CA
:100A2000104482F820341D4604B938BD236865722D
:100A300020465B6898476468F6E700BF18140020FA
:100A400010B5037A052B0C460FD0437A23B1084A20
:100A50000849204600F005FE0749204600F001FE47
:100A60002046BDE8104000F0F1BD002AF8D0F3E7C1
:100A7000243B0000293B0000493B000073B5C388BC
:100A800004460D4633B1144A00921449144A2846CC
:100A900000F0E7FD217A05291CD0637A4BB1A088CC
:100AA000FFF70AFE0F4B104953F82020284600F0AC
:100AB000D8FD227A0D4BA08853F822600021FFF761
:100AC000DFFD0B4903463246284602B0BDE87040C0
:100AD00000F0C7BD02B070BD243B0000343B0000F5
:100AE0002C3B0000B03B0000293B0000D43B000041
:100AF0004C3B00002DE9F04385B01F460C9D0023C0
:100B000095F80C902B7306460C46904629463846BD
:100B1000FFF7B4FFB8F1060F09D8DFE808F00412B8
:100B2000181F283340003146284600F09AFD002265
:100B300029463846FFF784FF85F80C9005B0BDE8DC
:100B4000F08322683146284600F08BFDEFE7D4E9B8
:100B500000233146284600F084FDE8E7A3680093AF
:100B60003146D4E90023284600F07BFDDFE7E36847
:100B70000193A36800933146D4E90023284600F08E
:100B800070FDD4E723690293E3680193A36800939F
:100B90003146D4E90023284600F063FDC7E76369C6
:100BA000039323690293E3680193A368009331469A
:100BB000D4E90023284600F054FDB8E708292DE9C0
:100BC000F84F80460E4617461C4639D8002593F844
:100BD0000C901D7319461046FFF750FFDFF884A0F4
:100BE000DFF884B0AE422DD918F8052059462046CA
:100BF00000F037FD0135082DF4D11749174DDFF806
:100C00006CB0204600F02DFD4FF0000A56451ED96D
:100C100018F80A20124BD15C11F0970F08BF2E2252
:100C20005946204600F01DFD0AF1010ABAF1080FED
:100C3000ECD1012221463846FFF702FF84F80C90E0
:100C4000BDE8F88F5146204600F00BFDD2E729465B
:100C5000204600F006FDE7E7603B00005E3B000039
:100C6000214400005C3B0000563B0000623B00005A
:100C70002DE9F04F364E87B04FF00009354B1B7809
:100C80005FFA89F5AB4202D807B0BDE8F08F324B6E
:100C9000D3F800A01AF835000124D6E9001EA0F10F
:100CA0002002C0F1200304FA02F224FA03F31343F2
:100CB00004FA00FC059301EA0C030093059B0EEA7D
:100CC00003030193DDE9002313430AEBC50B3BD07B
:100CD000059B21EA0C012EEA0303C6E9001301F08B
:100CE000B7FB03461AF835001C4DA0F12001C0F1F6
:100CF000200204FA01F124FA02F20A43D5E900C104
:100D000084400A400392A0F1200104EA0C04C0F1DF
:100D1000200203FA01F823FA02F2029448EA0208D8
:100D2000DDE9021203FA00F7424508BFB9420BD1D0
:100D3000DBF8042042B19BF801104C1E6142614176
:100D4000CD1A69426941904709F1010996E700BF50
:100D5000701800203C180020781800206818002027
:100D6000F8B506461E4800F08FFBC0BB0125A6F172
:100D70002004C6F1200325FA03F305FA04F41C430A
:100D8000184BD3E900C2B5400CEA050002EA0401A1
:100D900001431F461DD1304601F05AFB124BD3E9E7
:100DA000001288B129432243C3E90012D7E9002386
:100DB00015431C43C7E900540C4B0948196800222D
:100DC000BDE8F84000F018BB21EA050122EA040260
:100DD000EAE72CEA050522EA0404C3E90054F8BD59
:100DE00044180020701800206818002040180020C7
:100DF000042A2DE9F34105460C46164639D901F07F
:100E000065FAD8B11C4B1D491D601D4BDFF884806D
:100E10001C701C4B00221E600023C1E900231A49EC
:100E2000C1E90023013CE4B200260327FF2C0CD1CA
:100E3000164A1748002100F0CDFA03E001F00CFA41
:100E40000028DFD002B0BDE8F08105EBC40315F83F
:100E500034009B788DF80660424601A98DF8047035
:100E60008DF8053001F03CFA013CE4B20028DDD0F9
:100E7000E8E70720E6E700BF7818002068180020A0
:100E80003C1800204018002070180020710C000051
:100E9000E83B0000610D000070B5084D084E0024CD
:100EA0002B789C4201D3002070BD3368012113F8D8
:100EB000340001F089FA0134F2E700BF3C18002049
:100EC000781800201FB50021039001AA44F2010008
:100ED000CDE9011100F004F805B05DF804FB000055
:100EE00010B572B6FFF798FDFFF706FC0028FBD19E
:100EF000104C11492088000440F00100FFF750FD1C
:100F00000E4B1B68DB0700D500BE20880C4900048F
:100F100040F00200FFF744FDBFF34F8F09490A4B31
:100F2000CA6802F4E0621343CB60BFF34F8F00BF87
:100F3000FDE700BFCC120020EC3B0000F0ED00E02C
:100F4000F83B000000ED00E00400FA05094A537880
:100F500091780133DBB2994208BF0023117899429E
:100F60001FBF03705078182303FB002014BF043008
:100F7000002070477C18002073B5054600240DF151
:100F800007000E468DF8074000F08EFA0DF10600BE
:100F9000FFF7DCFF90B10670094B9DF80620456015
:100FA0005A709DF8070000F0A3FA24B9054B4FF4DE
:100FB0008012C3F80021204602B070BD0424F0E77F
:100FC0007C18002000E100E0024B4FF43C6043F04D
:100FD00001031847063C000038B50C4B0C4C4FF48D
:100FE0000032C3F8802001254FF48033C4F8483321
:100FF000C4F808336560FFF7E7FF064BA5600024DF
:101000001C60FFF7E1FF044B1C7038BD00E100E0FD
:10101000001001409819002089190020F8B51F49D7
:101020001F4B0025C1F84051C1F84451C1F8485147
:10103000C1F84C51C1F80051C1F804511B684BB3C1
:10104000D1F8044517490968641A24F07F442F46F3
:101050001A68A24209D8A41A15441A7CDE691AB18A
:10106000D3E905201F749047AEB90F4A0F4B117892
:101070001B788B4205D10133DBB2022B08BF002362
:10108000137012780A4B43F822500A4B4FF4801227
:10109000C3F80021F8BD3346DAE700BF0010014075
:1010A0009C190020981900209519002094190020FF
:1010B0008C19002000E100E02DE9F04FA24AA3497D
:1010C00013780978A24D994285B03CD00133DBB248
:1010D000022B08BF002313709E4912789E4B0F68A5
:1010E00053F822003B1823F07F4300220B602B684B
:1010F00016461446944613B942B12B6006E01968AF
:1011000081420ED902B12B60091A196001272B68A0
:10111000DFF84CA201934FF00008BEB9DFF848B2E7
:1011200062E0401A0C44D968D3F81CE0C3F800C050
:1011300031B13A1922F07F42C3E90121DE611E4636
:1011400073460122D7E700263746E0E73446F669C2
:10115000804A63681268DFF814C2A068991A21F007
:101160007F41614500F2A880014421600122227480
:101170002A680023C4E90133E361002A40F0A58016
:101180002C60CAE79BF802105A1CD2B291428BF82D
:10119000002004BF00228BF80020182202FB03B3BA
:1011A0002A6819799C68022977D0032900F0818088
:1011B000012919D1207CB8B9D96861601A69A26087
:1011C0005A69E2609B69A361644B1B78002B18BFCE
:1011D00001466160BCE78C4200F094808946C96991
:1011E0000029F8D1002323749BF800309BF80120DC
:1011F0009A42C7D12B68B8F1000F04D1019A9A42E4
:1012000001D1002F43D0002B79D0D3F800A0544D4A
:10121000504BD5F804751C68DFF854813E1B98F8D4
:10122000003026F07F4603369BB94FF48033C5F873
:101230004433C5F804334B4B4FF400324FF00109EF
:10124000C3F880211A60C5F80090FFF7BDFE88F84A
:101250000090B2452CBF5444A41924F07F44C5F833
:101260004045D5F80435DB1B23F07F43E41B0333F3
:1012700024F07F44A3420AD9D5F80435C5F8403597
:10128000FFF7A2FE374B4FF40032C3F80021334B77
:1012900000221A7005B0BDE8F08F114691469FE715
:1012A0001174D2690123002AFAD1002B9CD02A6044
:1012B0009AE700231946F6E7D31A23F07F438342C7
:1012C00034BFC31A0023236050E721681368994292
:1012D00013D8591A1160E26152E7091AD8691A46FF
:1012E00038B1034618688842F7D3401A1860184688
:1012F00013462160E061DC610FE71346F2E7FFF778
:101300006BFEC4E74C4511D1D3692B6073B9DFF88C
:1013100044E00120CDE90212CAF80800CEF80030FE
:101320000E4B1870FFF750FEDDE902120B68C96919
:10133000C9F81C1011B1086803440B602B68934274
:1013400018BF4FF001084DE79419002095190020AF
:101350009C190020981900208C1900208819002061
:101360000010014000E100E07C180020FEFF7F003B
:101370008919002008B5FFF72FFE104B00200B2223
:1013800018809A700E4B18600E4B18700E4B187028
:101390000E4B4FF48012E021C3F8802183F8141320
:1013A0001A6002F18042A2F56F22C2F8080583F8A4
:1013B0001113074BD2F804251A6008BD7C180020D1
:1013C0009C190020941900209519002000E100E0EC
:1013D00098190020074B9B784BB132B128B10368B4
:1013E000187C20B959745A6170470720704708204B
:1013F000704700BF7C1800202DE9F743DFF8848098
:1014000098F8023005460E461746ABB3A0B3042940
:1014100030D9436983B3437C0024012B0DF10700CD
:101420000CBF8946A1468DF8074000F03DF80DF14C
:101430000600FFF78BFDD8B1012303700F4B456009
:10144000D3F80435C0E90497C0E902369DF80630A8
:1014500088F801309DF8070000F04AF824B9084BDD
:101460004FF48012C3F80021204603B0BDE8F0839A
:101470000424EFE70724F7E70824F5E7001001400C
:1014800000E100E07C180020064A92783AB130B1C1
:10149000426922B1002202740221FFF76DBD0820CB
:1014A000704700BF7C18002070B5EFF3108672B64D
:1014B0000C4A946801239CB993600B4B0B4DD3F8F5
:1014C000801029401160C3F88050D3F88410516017
:1014D0004FF0FF32C3F88420047006B962B670BDC5
:1014E0000370FAE7141B002000E100E0FC06FFBDDA
:1014F00010B5084B9A685AB150B9EFF3108172B623
:10150000054A1C6814605C685460986001B962B652
:1015100010BD00BF141B002000E100E010B5034621
:1015200053E8000F0A4643E8002494F0000FF7D177
:1015300010BD10B5034653E8002F42EA010043E80E
:10154000000494F0000FF6D110BD10B5034653E827
:10155000000F00EA010243E8002494F0000FF6D1E6
:1015600010BD10B5034653E8002F02EB010043E81D
:10157000000494F0000FF6D110BD10B5034653E8F7
:10158000002FA2EB010043E8000494F0000FF6D115
:1015900010BD0121FFF7CDBF0021FFF7D6BF10B569
:1015A00090B1D0E9012301689B1ADBB20A60013BCC
:1015B000DBB2FF2B026802D10020107110BD116850
:1015C0004C1C14600B70F2E70E20F7E737B50446A9
:1015D00000250DF107008DF80750FFF765FF226821
:1015E000616813688B4210D9591E116013F8015CB1
:1015F000A28AE36802FB05352268A36811685B1ABA
:101600001179DBB2994238BF13719DF80700FFF7DB
:101610006FFF284603B030BD37B5054600230DF1F6
:1016200007000C468DF80730FFF73EFF2A68136865
:10163000591C1160E968641AA98AB4FBF1F41C70A2
:101640009DF80700FFF754FF03B030BD10B5826866
:1016500004462AB143690168006998470023A360E2
:1016600010BD0EB403B5039921B104AB01AA0193D7
:1016700000F06EF802B05DF804EB03B070478268CA
:1016800030B40468551C8560A154D0E901329A42F7
:1016900002D330BCFFF7DABF30BC70472DE9F84FFA
:1016A0009846DDE90A43154682460F460A464FF042
:1016B0000109AA420FD2C14538BFC14613F0010B40
:1016C00001D16CB900240126B8F1010F1BD908F132
:1016D000FF386E43F8E709F10109B2FBF5F2E8E7DC
:1016E0009B070ED5B8F1000F0CBF30262026A14570
:1016F000E9D2013C31465046FFF7C1FF002CF6D13C
:10170000E0E72026F3E7B7FBF6F39D42E1D9DFF8E7
:101710003C80B7FBF6F3504618F8031006FB13772E
:10172000FFF7ADFF3346AB42B6FBF5F6F1D2BBF1A6
:10173000000F02D00CB1A14501D3BDE8F88F2021E4
:101740005046013CFFF79BFFF4E700BF0C3C000054
:101750002DE9F74F054617468846002900F04281DB
:1017600018F8011B49B92B7B002B00F03B81284660
:1017700003B0BDE8F04FFFF769BF252940F0B780FF
:10178000002698F800302D2B424608F1010823D09E
:10179000302B24D02B2B25D000242A2B02F1010141
:1017A00023D13B681A1D3A601B680A461C44137813
:1017B0002E2B26D101324FF0000A104610F8011BE3
:1017C000A1F1300CBCF1090F1DD80A2303FB0A1349
:1017D000A3F1300A0246F0E746F00106D1E746F0F1
:1017E0000206CEE746F00406CBE711F8013CA3F170
:1017F00030000928DBD80A2202FB0434303C0A46B8
:10180000CBE74FF0000A12F8011B01F0FB0068283B
:101810009046F8D0782909D86F290CD8632962D06E
:1018200022D8252963D0582900F0888098F8003004
:10183000002B95D197E770390829F7D801A353F801
:1018400021F000BFBF1900002D1800002D18000066
:101850004D1900002D1800002B1900002D18000054
:101860002D1800003D190000642901D06929DDD13F
:101870003A68111D3960D2F8009089EAE972A2EB4A
:10188000E9724FF0010B092A35DCD34538BFD34646
:101890002CB1B9F1000F01DB720700D5013CB30791
:1018A00002D5BAF1000F03D0F00701D44CBB0024DD
:1018B000B9F1000F2DDAC9F100092D212846FFF7F3
:1018C000DEFE06F00302022A04D1BAF1000F01D1B4
:1018D0001CBB0024CDE9004653460A22494628464F
:1018E000FFF7DCFEA2E73B681A1D3A60197828462C
:1018F000FFF7C5FE9AE70A230BF1010BB2FBF3F2E7
:10190000C1E7A345D4D220212846013CFFF7B7FE0A
:10191000CCE77107D5D52B21D0E7A345DAD230210A
:101920002846013CFFF7ABFED2E73968CDE9004617
:101930000A1D3A6053460A220968D0E739680A1D31
:101940003A60CDE9004653461022F5E73B681A1D80
:101950003A6016F00106D3F8009028D1B9F1000FD3
:1019600003D0484601F024FF0646B44200D904BB28
:1019700009F1FF3919F8011F00293FF457AF284634
:10198000FFF77DFEF6E728460136FFF778FE19F8E7
:1019900006100029F7D1A642BFF448AF002C3FF44F
:1019A00045AF20212846013CFFF769FEF3E70026FA
:1019B000EDE720212846013CFFF761FED5E73B68B3
:1019C0001A1D3A60302128461C68FFF758FE78211E
:1019D0002846FFF754FE00220823CDE900322146B5
:1019E00010227CE703B0BDE8F08F00BFFFF7D7BD42
:1019F000F8B546790146721E0546002393422D68CC
:101A000003D30024A64202D8F8BD0133F6E70F68DD
:101A10002846FFF701FE01343946F3E72DE9F84384
:101A2000CD1C868A0746FFF7D1FD043E35440446A7
:101A3000B5FBF6F5F0B14FF48073EDB28380C6804C
:101A4000013D076081464FF00008A84512D2384694
:101A5000FFF7BCFD064648B163790133637108F1B5
:101A60000108C9F8000007608146EEE72046FFF74D
:101A7000BFFF34462046BDE8F88301210430FFF75C
:101A800070BD10B5012104460430FFF776FD10F05B
:101A9000FF0F04D12046BDE81040FFF7A9BF10BDDD
:101AA0002DE9F843B0F8068004330546B3FBF8F49B
:101AB0000F46164608FB14333CB9A8EB0309B145A1
:101AC00028BFB14626B9BDE8F8832D68013CF3E78D
:101AD0000433E818A6EB09064A46391901F052FE0C
:101AE000B0454C442D68C1464FF0000328BFB146B5
:101AF000E8E72DE9F843B0F8068004330546B3FB68
:101B0000F8F40F46164608FB14333CB9A8EB03095A
:101B1000B14528BFB14626B9BDE8F8832D68013C20
:101B2000F3E70433E918A6EB09064A46381901F031
:101B300029FEB0454C442D68C1464FF0000328BF34
:101B4000B146E8E741DF7047064B10B500241C7032
:101B5000054B1C60BFF35F8F0449054800F016F881
:101B6000204610BDA8190020AC190020283C000018
:101B7000A019002008B501F073FC18B1BDE80840B9
:101B8000FFF7E0BF20BF40BF20BF08BD01600B686A
:101B900043604A68934204BF002343607047436830
:101BA00043B1026891680B4443605268934204BF9A
:101BB000002343607047000010B50D49A1F59472F1
:101BC000914201D800200FE08C1AE30F03EBE403ED
:101BD0005B1002EBC30452F83330834205D802D2C3
:101BE00004F10802ECE7606810BD2146E8E700BF99
:101BF0002C41000008B5FFF7DFFF024B002808BFAB
:101C0000184608BDEE3F00000C4B1B78062B10D188
:101C10000B4B1B681A070CD10A4B186800F0F00335
:101C2000302B08D000F0E000A0F1400358425841AA
:101C30007047002070470120704700BFE00F00F0A0
:101C4000E40F00F0E80F00F0094B1B78062B0CD1D5
:101C5000084B1B681A0708D1074B186800F0F00002
:101C6000A0F130035842584170470020704700BF30
:101C7000E00F00F0E40F00F0E80F00F008B5FFF708
:101C8000C3FF28B16F4B704A1B68C3F30423136072
:101C9000FFF7DAFF10B16D4B6D4A1A606D4B6E4A5B
:101CA0001B68C3F342331360FFF7CEFF20B16B4ACA
:101CB000D36823F08073D3604FF080430022C3F8D1
:101CC0000C21C3F81021C3F83825FFF7BDFF10B170
:101CD000634B03221A60FFF7B7FF40B1614B052247
:101CE0001A6001229A6700229A603F225A604FF0E0
:101CF00080525D4BD2F80414C3F82015D2F80814B2
:101D0000C3F82415D2F80C14C3F82815D2F810140F
:101D1000C3F82C15D2F81414C3F83015D2F81814DF
:101D2000C3F83415D2F81C14C3F84015D2F82014A7
:101D3000C3F84415D2F82414C3F84815D2F828146F
:101D4000C3F84C15D2F82C14C3F85015D2F830143F
:101D5000C3F85415D2F83414C3F86015D2F8381407
:101D6000C3F86415D2F83C14C3F86815D2F84014CF
:101D7000C3F86C15D2F84424C3F8702503F540531A
:101D8000FB22C3F81825FFF73FFF28B1374B384A2D
:101D90001B6803F04F0313604FF08043D3F8002417
:101DA000D20744BF6FF00102C3F80024314B1B6817
:101DB000062B08D1304B1B68062B01BF2F4A136836
:101DC00043F4806313604FF01023D3F80022002AFD
:101DD00003DBD3F80432002B2FDA294B0122C3F89E
:101DE0000425D3F80024002AFBD04FF0102215213F
:101DF000C2F80012D3F80024002AFBD04FF01023C1
:101E00001522C3F804221E4B1A46D3F800140029E9
:101E1000FBD00021C3F80415D2F80034002BFBD00E
:101E2000BFF34F8F1749184BCA6802F4E06213439F
:101E3000CB60BFF34F8F00BFFDE7144B144A1A600D
:101E400008BD00BF240300104035014074C00740A6
:101E50000DF0ADBA440200103C050040F0ED00E08A
:101E6000A00500401056004000C00040580200107D
:101E7000E40E004030010010340100103C17004017
:101E800000E0014000ED00E00400FA052812002007
:101E90000090D003054A4FF0A043105CD3F80435FE
:101EA00023FA00F0C04300F0010070472C4100000D
:101EB000044B1A5C012393404FF0A042C2F80C354A
:101EC000704700BF2C410000044B1A5C0123934073
:101ED0004FF0A042C2F80835704700BF2C41000007
:101EE00008B50020FFF7F0FF0120FFF7EDFF02200B
:101EF000FFF7EAFFBDE808400320FFF7E5BF08B59C
:101F00000020FFF7D5FF0120FFF7D2FF0220FFF7E7
:101F1000CFFFBDE808400320FFF7CABF074A4FF0D4
:101F2000A041105CD1F804350122824022EA03006E
:101F30001340C1F80805C1F80C3570472C4100006A
:101F40000D2809D00E2809D00F2809D010280CBF61
:101F500003204FF0FF30704700207047012070478A
:101F600002207047C20708B501460CD54FF0A043C8
:101F70000322C3F84427C3F84827C3F84C27C3F803
:101F80005027FFF7ADFF8B070AD54FF0A0430C2277
:101F9000C3F83427C3F83827C3F83C27C3F84027D1
:101FA00008BD000038B5074C051E04F1080318BF32
:101FB0001C4623682BB11A6822605B682846984744
:101FC000F7E738BDB819002020B9054B01225A7037
:101FD000FFF7E8BF012802D1014A9070F8E7704787
:101FE000B019002020B9034B01225A70FFF7DABF65
:101FF000704700BFB019002038B50B4C237883B967
:102000000A486360A3602361E36000F0A3F805461B
:1020100001F026FA08B900F0A9F801232370284638
:1020200038BD8525FBE700BFB0190020C91F00009F
:1020300037B50B4C00230DF107008DF80730FFF783
:1020400033FAE368013BE360E56815B900F0A2F8F4
:10205000A5709DF80700FFF74BFA03B030BD00BF35
:10206000B0190020012813B508D003281CD018B9D6
:10207000104B0122C3F8802002B010BD0E4C00238B
:102080000DF107008DF80730FFF70EFA23780BB932
:10209000FFF7B2FFE3689DF807000133E360012317
:1020A000A370FFF725FAE7E700F060F8FFF7C0FF3D
:1020B000E2E700BF00E100E0B01900201FB503789F
:1020C0008DF8003043680193037A8DF80830C368B7
:1020D000054A0393054B684653F8213052F8211006
:1020E000984705B05DF804FBC4190020C81900200A
:1020F000F0B506460F4B16F804CB43F82C200E4BD8
:1021000017460A6943F82C200C460FCC89B06D465F
:102110000FC594E80F00002F85E80F00074ACDF89F
:1021200010C008BF3A466946304600F0EFFA09B0E1
:10213000F0BD00BFC8190020C4190020BD20000058
:1021400000F18040002382B0036003680193019B8B
:1021500002B07047044B0246187918B91A60012280
:102160009A80704785207047CC190020084B1A6868
:10217000D20706D4E02283F800230122C3F880218D
:102180001A604FF080430122C3F81825704700BF42
:1021900000E100E0044B01221A604FF08042D2F8C7
:1021A0001834DB03FBD470470C00004010B5124B11
:1021B0001B6873B14FF48070FFF7C2FF4FF080438C
:1021C0000122C3F808230D4B587910B95A711B68C6
:1021D00098470B4B1B6873B14FF48270FFF7B0FF49
:1021E0004FF080430222C3F80823044BBDE810409F
:1021F0001B680120184710BD00010040CC190020C9
:102200000401004000F1804000F5C040002382B08E
:10221000036003680193019B02B07047800000F1E6
:10222000A040D0F8002722F44032C0F80027D0F8B0
:10223000003743EA0143C0F800377047054B4FF0C1
:10224000FF32072843F8202084BFC01880F84820B8
:10225000704700BFD419002010B5184C94F85830BE
:1022600053BB04F130032021FF22013911F0FF019B
:1022700003F8012BF9D1C8B2FFF7E0FF01310C29B7
:10228000F9D1042200210E4801F08AFA0D4BE02218
:1022900083F806234022C3F880214FF4BE701A60F1
:1022A000FFF7B0FF084B4FF00042C3F804230123AF
:1022B00084F85830002010BD0820FCE7D419002015
:1022C000281A002000E100E000600040034B93F872
:1022D0005800003818BF0120704700BFD4190020F3
:1022E000F0B5374E0546301890F93000002864DA12
:1022F0008878C0F3400000280BBF082300230C247B
:102300000824A34201D10420F0BD56F82370013700
:102310003FD1741946F8232084F8303010B9F218F0
:1023200082F848508A78500713D4D40733D5AA00CE
:1023300002F1A042D2F8000720F00200C2F8000724
:102340002048EA0805F007070124BC40875C3C43AD
:1023500084548A780C7812F0020025D09B0003F197
:10236000804303F5C0432A02D3F8101521F4473106
:1023700021F44071C3F810152404D3F8101502F4A9
:10238000F85204F4403422430A43C3F810250020D5
:10239000BAE70133B5E7487805F5E0724FF0A0449D
:1023A000800044F82200CBE7083B334493F85020E8
:1023B00042EA841483F85040A6E70820A4E700BF4F
:1023C000D4190020281A002038B51F4C251895F97B
:1023D0003020072A16DD224492F848309B09032B4F
:1023E0000BD14FF0A043D3F81015C14001F001010B
:1023F0000231BDE83840FFF711BF012B0CBF0221AD
:102400000321F6E7D3B2072B1CD8930003F18043D6
:1024100003F5C043D3F8100540F00100C3F81005E0
:1024200002F14000800080B2FFF7ECFE51B195F957
:10243000303054F823302BB1012303FA02F2034B5E
:10244000C3F8042338BD00BFD41900200060004049
:102450004FF0A043D3F8103523FA00F000F001004C
:10246000704700002DE9F04F87B000245A4D0394C7
:102470004FF48072012102F1804303F5C04390B212
:102480001B68012B06D1D5F804330B4202D0FFF7AD
:10249000B9FE0C430432B2F5907F4FEA4101EAD114
:1024A0004E4B1B68012B0AD14FF4BE70FFF7AAFEFA
:1024B0004FF0A04344F00044D3F81035039314F0D8
:1024C000FF0F1AD0464F00250126344210D0AB0032
:1024D00003F1804303F5C043D3F81005D3F810157A
:1024E00057F8253023B1C1F30141C0F304209847C8
:1024F0000135082D4FEA4606E7D1002C65DA0021A8
:102500004FF0FF33CDE90413354D01274FF0000A9A
:10251000344ED1464FF0A04816F9013B5A1C45D025
:10252000C3F3C20106AA5018DCB210F8042C03F061
:102530003F0B03F0070307FA03F31A4236D005EB0B
:102540000B02A40992F9302055F8222052B9032C2D
:102550002CD10DF1100E1EF801C04CEA030C0EF840
:1025600001C001E0032CF4D00BF5E07110F80C0C65
:1025700058F821101842C1F3014105D0022915D1A4
:10258000032C0FD1214604E003290FD1032C09D1DC
:1025900002215846019209F10109FFF73FFE019A15
:1025A0005FFA89F912B12146584690470AF1010AAB
:1025B000BAF1040FB0D1B9F1000F06D04FF0A0432B
:1025C000039AD3F81035934202D107B0BDE8F08FDB
:1025D0000393049B059399E7006000407C610040F1
:1025E000D4190020241A00200020704770470023CF
:1025F000435082B043580193019B02B070470000E2
:102600001FB501238DF80030054B8DF808000191AE
:102610006846D3E90012904705B05DF804FB00BF9F
:10262000301A00207FB5374AD2F82461002E47D0F7
:1026300010464FF49271FFF7DAFF02238DF8003055
:10264000D2F88034C2F880340393D2F83C358DF848
:1026500008302D4BDA6801920022C3E90622684651
:10266000D3E9001290472748D0F844316BB14FF4BA
:10267000A271FFF7BCFF244B9A6932B100229A6124
:10268000D0F83C05D968FFF7BBFF1E48D0F82031D1
:10269000A3B14FF49071FFF7AAFF1B4B5A696AB1BF
:1026A000D0F84C158DF80810002299688DF800209C
:1026B00001915A616846D3E90012904704B070BD99
:1026C000D2F81031002BCED04FF488711046FFF7AE
:1026D0008EFF0D4BD2F83C0599698842C3D1DC6965
:1026E000D96864B1D2F8005225F02005C2F8005232
:1026F0001A699C61DA60DE61FFF782FFB3E79C61D3
:10270000FAE700BF00200040301A00202DE9F8430E
:1027100091460679604A242303FB0623054693F875
:1027200020300C469046002B40F0B1805B49006899
:10273000FFF75AFF0746002840F0AB802268501C84
:102740000BD0012393404FF0A0420321C2F808357B
:10275000236803F5E07342F823106368591C1FBF18
:1027600003F5E0734FF0A042002142F823102B68DC
:10277000A269C3F82425217D637D2A680B43C2F832
:102780006C35D4E900212B68C3F80C25C3F8141567
:10279000237D012B1FD1A3685A1C1FBF4FF0A042FD
:1027A00003F5E073002142F82310E268531C0BD0BC
:1027B000012393404FF0A0420321C2F80835E3689B
:1027C00003F5E07342F82310D4E902122B68C3F832
:1027D0000825C3F810152423734308EB0302C2F83D
:1027E0000490226948F80320B9F1000F3ED0286810
:1027F000227F4FF48871FFF7FAFE28684FF490713A
:10280000FFF7F5FE28684FF49271FFF7F0FE4FF4E2
:10281000A2712868FFF7EBFE2B682149C3F8041367
:102820002B68190B43F30733002BAEBF03F1604352
:102830001C4B01F00F014FEA4212D2B2AABF03F5BE
:1028400061435A5483F800232B68C3F3043143F3E4
:10285000C43323F0604323F0030303F1604303F523
:10286000614301228A40C3F880211A602B68082244
:10287000C3F80025242303FB06860023C6E906339C
:102880007361012386F820303846BDE8F8830827B5
:10289000FAE71127F8E700BF301A002025260000CC
:1028A0001003020014ED00E0F8B5036804792F4D21
:1028B0000022C3F80025242303FB04535B6883B183
:1028C00003682B4AC3F80823026842F30733012147
:1028D0005B09C2F3043201FA02F22033254941F8C0
:1028E000232003684FF0FF3CD3F80C75D3F8146530
:1028F000D3F80825D3F81015C3F80CC5C3F814C5D0
:1029000003686745C3F808C518BF07F5E077C3F843
:1029100010C51EBF4FF0A0434FF0020C43F827C074
:10292000771C1FBF4FF0A04306F5E076022743F85F
:1029300026704E1C1FBF01F5E0714FF0A043022628
:1029400043F82160531C1FBF4FF0A04302F5E07213
:10295000022143F822100068FFF748FE242303FBFE
:102960000454002384F820306360F8BD301A00203E
:102970001003020000E100E001F06043B3F1005FEA
:102980002DE9F041054634D11C4B0779242606FB7E
:1029900007369846746974BB7261B16000684FF481
:1029A0009071FFF724FE4FF4AC712868FFF71FFE0B
:1029B0002B687269B168C3F84415C3F848252B68C1
:1029C00001229A6073686BB92B68D3F82021D3F881
:1029D000584152B9002CF8D00F24242303FB078759
:1029E00000237B612046BDE8F081002C18BF0F2436
:1029F000F3E71024F6E71124F4E700BF301A0020B3
:102A00000220FFF78BBA00002DE9F04780460D4603
:102A1000FFF796FA0328044610D8012D10D0022D96
:102A200030D05DB91A48FEF72FFD1A4B04EB440273
:102A300013449E78184B1B5DB34219D0BDE8F08754
:102A4000144D00EB4002A918AE5C4A78470052B121
:102A5000DFF84C900E484A464FF40041FEF7CCFC9C
:102A600008B989F800803B192B449A780A4B1A550B
:102A7000002EE3D0094B1B68002BDFD03046BDE8A9
:102A8000F047184700EB4004024804446678EFE73B
:102A9000781A0020B81A0020D11A0020CC1A002081
:102AA000541A002000780221FFF7AEBF08B5094B89
:102AB0001B7853B10020FFF707FA0120FFF704FA53
:102AC000BDE808400320FFF7FFB9BDE80840FFF765
:102AD00007BA00BF551A0020F8B5794C237805468F
:102AE0001BB100232370FFF7E1FF172D00F2848054
:102AF000DFE805F00C13133F5061727C84898489F0
:102B0000919696969696C0C5CDD5E0E0FFF7CEFF9C
:102B10006C4B00241C702046F8BD0020FFF7BAF96A
:102B2000F8B10020FFF7D0F9022D0CBF4FF4E1619E
:102B30004FF47A61634B1D704FF400404FF4FA7408
:102B40000025E0FB01454FF47A7200232046294618
:102B500000F038FE00220146BDE8F8405A48FEF772
:102B60004BBCFFF7A5F9022D0CBFC8214FF4C8716B
:102B7000E0E70020FFF78EF940B10020FFF7A4F94D
:102B80004FF448714F4B03221A70D5E7FFF790F9C5
:102B9000C821F7E70020FFF77DF938B10020FFF7E3
:102BA00093F94FF47A61474B0422EDE7FFF780F980
:102BB0004FF4C871F7E70020FFF76CF948B1002027
:102BC000FFF782F93F4B05221A7041F69A11002255
:102BD000C2E7FFF76DF9F5E70020FFF79FF9394BE2
:102BE00006221A70002240F6CD41B5E70020FFF71B
:102BF0005FF9344B07221A7000248CE70120207003
:102C0000FFF78CF9EEE701202070FFF787F900222B
:102C10004FF48041A0E7FFF772F92A4B0C22EAE754
:102C20002A482B4EFEF730FCD5F1110504461CD086
:102C3000D8B9012D13D0C8235D434FF400474FF49A
:102C4000FA7000214FF47A720023C7FB050100F0EF
:102C5000B9FD224601461D48FEF7CEFB0446022080
:102C6000FFF726F90123337055E70220FFF72CF90F
:102C70000023F8E7FFF71AFF124B1222BBE7FFF71A
:102C800015FF0020FFF714F90E4B1322B3E7FFF7EF
:102C90000DFF0120FFF70CF90A4B1422ABE7FFF7F9
:102CA00005FF0020FFF704F90120FFF701F9054BAC
:102CB0001522A0E7FFF723F9024B1D709CE700BF28
:102CC000C81A0020D01A0020981A0020581A002094
:102CD000551A0020044B1B68DB0703D5034B1878FB
:102CE000FFF7FABE704700BFC41A0020D01A0020B8
:102CF000044B1B6813F0010301D0FFF7EDBE18462B
:102D0000704700BFC41A002038B51C4B18601C4B1C
:102D100010F00204054619601AD01A4B1A480E2208
:102D20001A700F22DA7010229A7111225A7204213D
:102D300040F26662FEF75CF8044648B9FEF7ACF86C
:102D4000044628B90146114A1148FEF743FB0446E0
:102D5000EB0711D50120FFF705F96CB921460D4AA3
:102D60000D48FEF737FB044630B9BDE838400B4A42
:102D70000B480121FEF72EBB204638BDC41A0020A7
:102D8000CC1A0020B81A002050410000A52A0000EB
:102D900074410000D52C000078410000012A000099
:102DA0007041000072DF704773DF704700B54FF469
:102DB000004193B00020FDF73BFC08B1FEF782F81C
:102DC000FDF764FBFEF7D6FA08B1FEF77BF80021A9
:102DD0000120FFF799FF08B1FEF774F8FEF7B4FE83
:102DE00008B1FEF76FF800F0F5FA08B1FEF76AF8DF
:102DF000002303A90120039300F07CFB08B1FEF738
:102E000061F803A800F01CFC08B1FEF75BF8592339
:102E1000274CADF80030274B0293002517233C22A6
:102E2000002103A8ADF8043000F0BAFC04231822F6
:102E3000294620468DF80F308DF80C50CDF830D053
:102E400000F0AEFC1C4A65600523237052F8041B99
:102E50002575A02303A8A360A58100F0AFF808B1F1
:102E6000FEF730F8124A14491448FFF79BFF08B1E7
:102E7000FEF728F8124B13491888000440F00300AD
:102E8000FDF78EFD0D4B01211878FFF78DFF08B17E
:102E9000FEF718F80220FFF72BFF08B1FEF712F833
:102EA000FDF72AFC0028FBD1FEF764FEF8E700BF1F
:102EB000D81A00203D1200202C1200203C120020C5
:102EC000CC1200207C4100006DDF704779DF704735
:102ED0007DDF704764DF70472DE9F04F85B0002536
:102EE0000E9CBDF83CB0B4F800A001910746904696
:102EF0001E46A9463A884A450DDC45B12388013B68
:102F0000A3EB0A039BB2FF2B3AD806F80A30002045
:102F100005B0BDE8F08F7A6852F8290003900022CE
:102F20000DF10B0103A8FFF7D5FF0028F0D19DF8A4
:102F30000B20424521D12288002D14BF0020022001
:102F400002EB0801014459451ADC3DB9013292B245
:102F5000019B2280B35422880132228022880DF105
:102F60000B01324403A8FFF7B5FF0028D0D1218818
:102F70009DF80B200A442280012509F10109B9E7D7
:102F80000C20C5E72DE9F341089FBDF824801546C4
:102F9000CDE90078022204461E46FFF79DFF50B996
:102FA0003346102229462046CDE9087802B0BDE814
:102FB000F041FFF791BF02B0BDE8F0812DE9F04F7D
:102FC00000231788138090F82D3085B006460D46F3
:102FD000144653B3082F01D80C2007E102A8FFF7CD
:102FE00073FF002840F0028123880822EA542388D6
:102FF00001339BB21B222380EA542088013080B227
:10300000208006220DF10901284400F0BBFB238833
:103010009DF8082006339BB212F0FE0218BF012271
:103020002380EA54238801332380B378FBB12388BB
:103030000433BB42D0D802A8FFF748FF002840F075
:10304000D58023880322EA54238801339BB21922B6
:103050002380EA542388BDF8082001339BB2E91885
:103060002380EA54120A4A70238802332380F278BC
:103070009AB12388D91CB942AED80221E9542388D9
:1030800001339BB201212380E95423880B449BB276
:103090002380EA5423880B4423807268AAB12388D2
:1030A000D91CB94298D8022192F90020E95423880A
:1030B00001339BB20A212380E954238801339BB258
:1030C0002380EA542388013323803389002B40F086
:1030D0008180338A53B1CDE900472B460722032173
:1030E00006F11000FFF74EFF00287FD1338B53B15C
:1030F000CDE900472B461522142106F11800FFF7F1
:1031000041FF002872D1326A002A72D1D6F8248099
:10311000B8F1000F30D0B8F804302188981C8A1C10
:103120000244BA423FF658AFFE283FF655AF03338C
:103130006B54238801339BB2FF222380EA542388F7
:1031400001339BB22380B8F80020EA54E918120A30
:103150004A702088023080B22080B8F804205AB12A
:10316000D8F8081000294ED0284400F00BFB238823
:10317000B8F804201344238096F82C30002B7DD11E
:10318000307898B33388012B3DD0228802F1020CAD
:10319000BC453FF621AF012805D1737802331344B3
:1031A0009F42FFF419AF023FBF1ABFB202A905EB5D
:1031B0000C00ADF80870FFF78BFEB8B93378022B1E
:1031C00040F09F80BDF80830BB4240F2B580ADF8BA
:1031D00008709FE0CDE900472B460622022106F148
:1031E0000800FFF7CFFE00283FF473AF05B0BDE83D
:1031F000F08FB4F800C00CF10603BB423FF6ECAE12
:103200001188052901D80720F0E76FF4486E01EB1B
:103210000E039BB24FF27D3E7345F4D95388052BC4
:10322000F1D96FF44860181880B27045EBD94FF6A9
:10323000FF70814203D0834201D09942E3D8052335
:1032400005F80C30238801339BB212212380E95406
:10325000238801339BB223801188E954E818090AB6
:103260004170238802339BB223805288EA54E918C4
:10327000120A4A7023880233238047E7B36A002B7F
:10328000C1D04FF000094FF00C0A4FF0160B96F822
:103290002C305FFA89F293427FF672AFB16A0AFB73
:1032A00002F201EB0208B8F80430981CFE283FF641
:1032B00093AE208803332B54238801339BB22380A1
:1032C00005F803B0238801339BB223808A5AEA545D
:1032D000E918120A4A702088023080B22080B8F8BB
:1032E00004205AB1D8F8081000298CD0284400F0E6
:1032F00049FA2388B8F804201344238009F101090E
:10330000C5E7012B7FF463AF73789F42FFF45FAF93
:10331000ADF808300821BDF80830FE2B3FF65CAE52
:1033200022880133AB542288013292B22280A95400
:1033300022881344238059E70921ECE710DF704706
:1033400013B5044609496846FEF720FC019808B900
:1033500002B010BDD0E900312046984718B1684648
:10336000FEF71DFCF2E71120F2E700BFA0410000CC
:1033700013B5044607496846FEF708FC019B0BB9E4
:1033800002B010BD2046D3E9002190476846FEF701
:1033900006FCF3E7B84100000C4A92F816333F2BC5
:1033A0004FEA53110DD904290BD0094B996821B16B
:1033B0001A6842F480021A6070474FF48003136069
:1033C000704742F20200FDF77DBD00BF00E100E062
:1033D000141B0020F7B51C4F3C7894BB1B4E0125F5
:1033E00020463570FFF7ACFF112827D02046FFF7A5
:1033F000BFFF174B8DF80340186801900DF10300D3
:10340000FEF752F8134901A8FFF798FF0446B0FAF7
:1034100080F0400938709DF80300FEF769F86CB938
:103420000D4B34701C700D4BE02283F8162383F88B
:103430001523FFF7B1FF2846FFF79AFF204603B098
:10344000F0BD0824FAE700BF101B00200F1B00206E
:103450009C410000E10E0000111B002000E100E093
:10346000014B1878704700BF101B002007B50849B2
:103470006846FEF78BFB019B13B903B05DF804FBB4
:10348000D3E9002090476846FEF789FBF3E700BFC9
:10349000AC410000FFF7EABF60DF704769DF7047AB
:1034A00061DF704730B5114B1B7891B0E3B1104D1F
:1034B00034240DF1020103A8ADF80240FFF7F0FF3C
:1034C00070B9294601A8FEF761FB029B002BF0D0E2
:1034D00003A8D3E90021904701A8FEF760FBF4E7B9
:1034E000052801D0FDF7EEFC11B030BD121B002005
:1034F000FC43000030B5054685B00C46002900F0BD
:103500008F80484B0B600C22002101A800F048F985
:1035100001238DF8063022688DF80450062301A996
:103520002020ADF80830FFF7B9FF58B13E4B1D8899
:10353000FEF760FB2D0445F0010502463B49284695
:10354000FDF732FA0C22002101A800F029F900232E
:1035500022688DF8053001A94020FFF79FFF58B180
:10356000314B1D88FEF746FB2D0445F00105024650
:103570002F492846FDF718FA0C22002101A800F077
:103580000FF9012022688DF8040001A9FFF786FFDA
:1035900058B1254B1D88FEF72DFB2D0445F0010584
:1035A000024624492846FDF7FFF90C22002101A814
:1035B00000F0F6F8F8232268019301A9A120FFF793
:1035C0006DFF58B1184B1D88FEF714FB2D0445F014
:1035D0000105024618492846FDF7E6F90C220021AC
:1035E00001A800F0DDF89DF8043022686FF30003B5
:1035F00001A9A0208DF80430FFF750FF034660B109
:10360000094B1C88FEF7F6FA240444F00104024634
:103610000A492046FDF7C8F90023184605B030BD19
:103620000E23FAE710120020DC120020C441000033
:103630000A42000056420000A2420000F34200008D
:10364000F8B504460768FFF727FF2368BB42054625
:1036500020D91A4E1A493088000440F00200FDF7C4
:103660009FF930882368174900043A4640F0020069
:10367000FDF7A3F94FF080533088D3F80C3122685E
:1036800011499B0203F1005300049A1A40F0020012
:10369000FDF78AF925B90D4B01221A702846F8BDAD
:1036A000064B28461C88FEF7A5FA240444F00104C2
:1036B000024607492046FDF777F9EFE7DC120020C4
:1036C0004643000075430000A6430000121B002083
:1036D000D04300004BDF70471FB50D4C01A8FFF72A
:1036E000F9FF70B9214602A8FEF750FA039B002BA0
:1036F000F4D00198D3E90021904702A8FEF74FFAD1
:10370000F4E7052801D0FDF7DDFB04B010BD00BFD4
:103710001444000008B5074B044613B10021AFF371
:103720000080054B1868836A03B19847204600F073
:1037300047F800BF000000002445000070B50D4DA3
:103740000D4C641BA4100026A64209D10B4D0C4C55
:1037500000F0B2F9641BA4100026A64205D170BD8A
:1037600055F8043B98470136EEE755F8043B984777
:103770000136F2E7B4120020B4120020B412002087
:10378000B81200200A44914200F1FF3300D1704783
:1037900010B511F8014B03F8014F9142F9D110BD5A
:1037A00002440346934200D1704703F8011BF9E736
:1037B000034613F8012B002AFBD1181A0138704771
:1037C000FEE700BF53B94AB9002908BF00281CBF53
:1037D0004FF0FF314FF0FF3000F06CB9ADF1080C45
:1037E0006DE904CE00F006F8DDF804E0DDE902231F
:1037F00004B070472DE9F047089E0D4604468E46FA
:10380000002B40F082808A42174646D9B2FA82F2F3
:103810004AB1C2F1200105FA02F320FA01F1974002
:1038200041EA030E94404FEA1748230CBEFBF8FC14
:10383000B9B208FB1CEE43EA0E430CFB01F09842C0
:103840000AD9FB180CF1FF3580F01681984240F23E
:103850001381ACF1020C3B441B1AA4B2B3FBF8F089
:1038600008FB103344EA034400FB01F1A14209D9EB
:103870003C1900F1FF3380F00181A14240F2FE804B
:1038800002383C44641A40EA0C4000211EB1D44086
:103890000023C6E90043BDE8F08702B9FFDEB2FAB3
:1038A00082F2002A4FD1CB1B4FEA174E1FFA87F83E
:1038B0000121B3FBFEFC250C0EFB1C3345EA03453E
:1038C00008FB0CF3AB4207D97D190CF1FF3002D293
:1038D000AB4200F2E7808446ED1AA3B2B5FBFEF0DE
:1038E0000EFB105543EA054408FB00F8A04507D934
:1038F0003C1900F1FF3302D2A04500F2D7801846F0
:10390000A4EB080440EA0C40C0E78B4208D9002E23
:1039100000F0AF800021C6E900050846BDE8F08749
:10392000B3FA83F100294BD1AB4202D3824200F2B9
:10393000B780841A65EB030301209E46002EAAD0AF
:10394000C6E9004EA7E7C2F1200C01FA02F3974046
:1039500020FA0CF04FEA174E21FA0CFC1843BCFB7E
:10396000FEF1050C0EFB11CC1FFA87F845EA0C4559
:1039700001FB08F3AB4204FA02F409D97D1901F105
:10398000FF3C80F08B80AB4240F2888002393D449E
:10399000EB1A85B2B3FBFEF00EFB103345EA03458C
:1039A00000FB08F3AB4207D97D1900F1FF3C71D24F
:1039B000AB426FD902383D44EB1A40EA014178E747
:1039C000C1F1200C8B4022FA0CF71F4320FA0CF4B3
:1039D00005FA01F34FEA174E25FA0CF51C43230CA8
:1039E000B5FBFEF91FFA87F80EFB195543EA0545AA
:1039F00009FB08FAAA4502FA01F200FA01F308D914
:103A00007D1909F1FF3047D2AA4545D9A9F102092C
:103A10003D44A5EB0A05A4B2B5FBFEF00EFB105524
:103A200044EA054400FB08F8A04507D93C1900F119
:103A3000FF352DD2A0452BD902383C4440EA09403D
:103A4000A4EB0804A0FB02894C45C6464D4619D399
:103A500016D05EB1B3EB0E0264EB050404FA0CFC65
:103A6000CA404CEA0202CC40C6E900240021BDE86D
:103A7000F087314630460EE7AC46EDE6184601E7E2
:103A80004345E6D2B8EB020E69EB07050138E0E7E3
:103A90002846D3E760468FE78146BAE7614677E775
:103AA00008464BE7ACF1020C3D4415E702383C44B4
:103AB00026E700BF704700BFF8B500BFF8BC08BCE0
:103AC0009E467047F8B500BFF8BC08BC9E467047DC
:103AD000FFFFFFFFFFFFFFFFFFFFFFFFFFFFFFFFF6
:103AE00000000000000000000000D60107000000F8
:103AF0003904000021040000C10300004261636B2F
:103B0000656E647320666C757368656400617070BF
:103B10000062616C6C6F632E6C6F675F6D656D70BA
:103B20006F6F6C001B5B306D002573001B5B313BBE
:103B300033316D0025734C6F67732064726F707042
:103B40006564202825642925730D0A003C25733EF1
:103B50002025733A200020253032780020202000D4
:103B60007C002563001B5B313B33306D001B5B31F8
:103B70003B33326D001B5B313B33336D001B5B31DC
:103B80003B33346D001B5B313B33356D001B5B31C8
:103B90003B33366D001B5B313B33376D0077617211
:103BA0006E696E6700696E666F00646562756700B6
:103BB000243B0000653B00002C3B00006D3B0000F7
:103BC000753B00007D3B0000853B00008D3B000005
:103BD000953B000000000000F23B00009D3B000010
:103BE000A53B0000AA3B0000441800204661746118
:103BF0006C206572726F720053797374656D2072F8
:103C00006573657400000738FDD870473031323372
:103C10003435363738394142434445467077725F10
:103C20006D676D74000000003445000034450000ED
:103C3000040000004E52465F535543434553530022
:103C40004E52465F4552524F525F5356435F484172
:103C50004E444C45525F4D495353494E47004E52D6
:103C6000465F4552524F525F534F46544445564962
:103C700043455F4E4F545F454E41424C4544004ED4
:103C800052465F4552524F525F494E5445524E4143
:103C90004C004E52465F4552524F525F4E4F5F4D61
:103CA000454D004E52465F4552524F525F4E4F5463
:103CB0005F464F554E44004E52465F4552524F525A
:103CC0005F4E4F545F535550504F52544544004E31
:103CD00052465F4552524F525F494E56414C4944FD
:103CE0005F504152414D004E52465F4552524F5235
:103CF0005F494E56414C49445F5354415445004E30
:103D000052465F4552524F525F494E56414C4944CC
:103D10005F4C454E475448004E52465F4552524F05
:103D2000525F494E56414C49445F464C414753000F
:103D30004E52465F4552524F525F494E56414C4992
:103D4000445F44415441004E52465F4552524F52E7
:103D50005F444154415F53495A45004E52465F45C6
:103D600052524F525F54494D454F5554004E5246A2
:103D70005F4552524F525F4E554C4C004E52465F7B
:103D80004552524F525F464F5242494444454E00BD
:103D90004E52465F4552524F525F494E56414C4932
:103DA000445F41444452004E52465F4552524F5286
:103DB0005F42555359004E52465F4552524F525F33
:103DC000434F4E4E5F434F554E54004E52465F4553
:103DD00052524F525F5245534F5552434553004E36
:103DE00052465F4552524F525F4D4F44554C455FCE
:103DF0004E4F545F494E495449414C495A4544003D
:103E00004E52465F4552524F525F4D555445585F92
:103E1000494E49545F4641494C4544004E52465F25
:103E20004552524F525F4D555445585F4C4F434B8E
:103E30005F4641494C4544004E52465F4552524F01
:103E4000525F4D555445585F554E4C4F434B5F465E
:103E500041494C4544004E52465F4552524F525FD5
:103E60004D555445585F434F4E445F494E49545F4A
:103E70004641494C4544004E52465F4552524F52CE
:103E80005F4D4F44554C455F414C52454144595F4D
:103E9000494E495449414C495A4544004E52465FA7
:103EA0004552524F525F53544F524147455F46551A
:103EB0004C4C004E52465F4552524F525F41504962
:103EC0005F4E4F545F494D504C454D454E5445440F
:103ED000004E52465F4552524F525F46454154553F
:103EE00052455F4E4F545F454E41424C4544004E53
:103EF00052465F4552524F525F494F5F50454E44C4
:103F0000494E47004E52465F4552524F525F44520F
:103F1000565F5457495F4552525F4F56455252556E
:103F20004E004E52465F4552524F525F4452565FCA
:103F30005457495F4552525F414E41434B004E52E8
:103F4000465F4552524F525F4452565F5457495F45
:103F50004552525F444E41434B004E52465F4552DC
:103F6000524F525F424C455F495053505F52585F29
:103F7000504B545F5452554E4341544544004E52A9
:103F8000465F4552524F525F424C455F4950535035
:103F90005F4348414E4E454C5F414C524541445968
:103FA0005F455849535453004E52465F4552524F55
:103FB000525F424C455F495053505F4C494E4B5FF6
:103FC000444953434F4E4E4543544544004E524698
:103FD0005F4552524F525F424C455F495053505FCC
:103FE000504545525F52454A454354454400556E3D
:103FF0006B6E6F776E206572726F7220636F64658F
:104000000000000000000000343C0000010000003F
:10401000403C0000020000005E3C00000300000085
:104020007F3C000004000000923C000005000000FE
:10403000A33C000006000000B73C000007000000A1
:10404000CF3C000008000000E73C00000900000031
:10405000FF3C00000A000000183D00000B000000BB
:10406000303D00000C000000473D00000D00000046
:104070005B3D00000E0000006D3D00000F000000E1
:104080007C3D000010000000903D00001100000089
:10409000A73D000012000000B63D00001300000024
:1040A000CB3D000080000000DF3D000081000000EB
:1040B000003E0000820000001C3E00008300000063
:1040C000383E000084000000563E000085000000DD
:1040D000773E0000860000009C3E0000900000003B
:1040E000B33E000091000000D13E000092000000AD
:1040F000EF3E000000820000043F0000018200004B
:10410000223F0000028200003E3F000000840000C9
:104110005A3F0000018400007E3F0000028400003E
:10412000A83F000003840000CD3F000011121314CB
:10413000636C6F636B00434C4F434B004750494FD8
:104140005445005052530055415254450000000060
:104150000D000300092A00000E000300092A0000D8
:104160000F000300092A000010000300092A0000C4
:10417000581A0020781A0020981A002042656163BE
:104180006F6E206578616D706C65207374617274F8
:1041900065642E006E72665F73646800010000073C
:1041A000BC450000BC45000008000000AC45000014
:1041B000BC45000008000000A4450000AC4500001C
:1041C0000800000073645F626C655F6366675F731D
:1041D000657428292072657475726E656420257374
:1041E000207768656E20617474656D7074696E67A0
:1041F00020746F2073657420424C455F434F4E4ED0
:104200005F4346475F4741502E0073645F626C65B1
:104210005F6366675F7365742829207265747572C1
:104220006E6564202573207768656E2061747465FF
:104230006D7074696E6720746F2073657420424CD2
:10424000455F4741505F4346475F524F4C455F4390
:104250004F554E542E0073645F626C655F636667F2
:104260005F73657428292072657475726E656420A9
:104270002573207768656E20617474656D7074694C
:104280006E6720746F2073657420424C455F434F06
:104290004D4D4F4E5F4346475F56535F555549441A
:1042A0002E0073645F626C655F6366675F7365743D
:1042B00028292072657475726E65642025732077D5
:1042C00068656E20617474656D7074696E672074C2
:1042D0006F2073657420424C455F47415454535FCF
:1042E0004346475F415454525F5441425F53495AD9
:1042F000452E0073645F626C655F6366675F73651C
:104300007428292072657475726E65642025732087
:104310007768656E20617474656D7074696E67206E
:10432000746F2073657420424C455F474154545369
:104330005F4346475F534552564943455F434841B3
:104340004E4745442E00496E73756666696369651C
:104350006E742052414D20616C6C6F6361746564B2
:1043600020666F722074686520536F6674446576AA
:104370006963652E004368616E6765207468652017
:1043800052414D207374617274206C6F6361746963
:104390006F6E2066726F6D203078257820746F20E4
:1043A000307825782E004D6178696D756D20524109
:1043B0004D2073697A6520666F72206170706C6938
:1043C000636174696F6E20697320307825782E00E0
:1043D00073645F626C655F656E61626C652829203D
:1043E00072657475726E65642025732E006E726638
:1043F0005F7364685F626C65000000003445000014
:1044000034450000080000006E72665F7364685FE8
:10441000736F63002C450000344500000800000065
:104420000020202020202020202028282828282084
:10443000202020202020202020202020202020207C
:1044400020881010101010101010101010101010E4
:1044500010040404040404040404041010101010D4
:10446000101041414141414101010101010101019E
:1044700001010101010101010101010110101010F0
:104480001010424242424242020202020202020270
:1044900002020202020202020202020210101010C4
:1044A00020000000000000000000000000000000EC
:1044B00000000000000000000000000000000000FC
:1044C00000000000000000000000000000000000EC
:1044D00000000000000000000000000000000000DC
:1044E00000000000000000000000000000000000CC
:1044F00000000000000000000000000000000000BC
:1045000000000000000000000000000000000000AB
:10451000000000000000000000000000000000009B
:0C45200000000000541200200000000009
:08452C00E51F00000000000083
:1045340036410000000000003C4100000000000083
:10454400434100000000000047410000000000005B
:104554000D3B000000000303113B000000000003BA
:1045640030410000000000009441000000000303FB
:10457400ED430000000003030844000000000303AF
:084584001C3C000000000000D7
:10458C004813002010140020181400205013002091
:08459C00D012002018000000FD
:0845A40065200000000000008A
:1045AC00A534000000000000D93600000000000017
:0845BC0084BCFF7F0100000038
:1045C400000000000020004000000000F03A00005D
:1045D40000000000000000000090D003F01A00204A
:1045E4001F0000000000000000000000FF02150191
:1045F40012233445566778899AABBCCDDEEFF001BF
:10460400020304C3000000000000000000000000DA
:104614000000000000000000000000000000000096
:104624000000000000000000000000000000000086
:104634000000000000000000000000000000000076
:104644000000000000000000000000000000000066
:104654000000000000000000000000000000000056
:0C46640000000000250200000102000020
:10467000000000000000000000000000000000003A
:10468000000000000000000000000000000000002A
:0C4690000000000000000000000000001E
:04000003000002B542
:00000001FF
